{
  "_format": "hh-sol-artifact-1",
  "contractName": "ProductTraceability",
  "sourceName": "contracts/ProductTraceability.sol",
  "abi": [
    {
      "anonymous": false,
      "inputs": [
        {
          "indexed": false,
          "internalType": "string",
          "name": "qrCode",
          "type": "string"
        },
        {
          "indexed": false,
          "internalType": "string",
          "name": "name",
          "type": "string"
        },
        {
          "indexed": false,
          "internalType": "address",
          "name": "creator",
          "type": "address"
        }
      ],
      "name": "ProductCreated",
      "type": "event"
    },
    {
      "anonymous": false,
      "inputs": [
        {
          "indexed": false,
          "internalType": "string",
          "name": "qrCode",
          "type": "string"
        },
        {
          "indexed": false,
          "internalType": "string",
          "name": "stepType",
          "type": "string"
        },
        {
          "indexed": false,
          "internalType": "string",
          "name": "location",
          "type": "string"
        }
      ],
      "name": "StepAdded",
      "type": "event"
    },
    {
      "inputs": [
        {
          "internalType": "string",
          "name": "qrCode",
          "type": "string"
        },
        {
          "internalType": "string",
          "name": "stepType",
          "type": "string"
        },
        {
          "internalType": "string",
          "name": "description",
          "type": "string"
        },
        {
          "internalType": "string",
          "name": "location",
          "type": "string"
        }
      ],
      "name": "addStep",
      "outputs": [],
      "stateMutability": "nonpayable",
      "type": "function"
    },
    {
      "inputs": [
        {
          "internalType": "string",
          "name": "qrCode",
          "type": "string"
        },
        {
          "internalType": "string",
          "name": "name",
          "type": "string"
        },
        {
          "internalType": "string",
          "name": "description",
          "type": "string"
        }
      ],
      "name": "createProduct",
      "outputs": [],
      "stateMutability": "nonpayable",
      "type": "function"
    },
    {
      "inputs": [
        {
          "internalType": "string",
          "name": "qrCode",
          "type": "string"
        }
      ],
      "name": "getSteps",
      "outputs": [
        {
          "components": [
            {
              "internalType": "string",
              "name": "stepType",
              "type": "string"
            },
            {
              "internalType": "string",
              "name": "description",
              "type": "string"
            },
            {
              "internalType": "string",
              "name": "location",
              "type": "string"
            },
            {
              "internalType": "uint256",
              "name": "timestamp",
              "type": "uint256"
            }
          ],
          "internalType": "struct ProductTraceability.TraceStep[]",
          "name": "",
          "type": "tuple[]"
        }
      ],
      "stateMutability": "view",
      "type": "function"
    },
    {
      "inputs": [
        {
          "internalType": "string",
          "name": "",
          "type": "string"
        }
      ],
      "name": "products",
      "outputs": [
        {
          "internalType": "string",
          "name": "name",
          "type": "string"
        },
        {
          "internalType": "string",
          "name": "description",
          "type": "string"
        },
        {
          "internalType": "address",
          "name": "creator",
          "type": "address"
        },
        {
          "internalType": "bool",
          "name": "exists",
          "type": "bool"
        }
      ],
      "stateMutability": "view",
      "type": "function"
    }
  ],
  "bytecode": "0x6080604052348015600f57600080fd5b5061129b8061001f6000396000f3fe608060405234801561001057600080fd5b506004361061004c5760003560e01c80630186a423146100515780633815c4fc14610084578063c11b668a146100a0578063d768468b146100d0575b600080fd5b61006b6004803603810190610066919061091e565b6100ec565b60405161007b9493929190610a42565b60405180910390f35b61009e60048036038101906100999190610a95565b61026f565b005b6100ba60048036038101906100b5919061091e565b6103dd565b6040516100c79190610d02565b60405180910390f35b6100ea60048036038101906100e59190610d24565b61061d565b005b60008180516020810182018051848252602083016020850120818352809550505050505060009150905080600001805461012590610dfa565b80601f016020809104026020016040519081016040528092919081815260200182805461015190610dfa565b801561019e5780601f106101735761010080835404028352916020019161019e565b820191906000526020600020905b81548152906001019060200180831161018157829003601f168201915b5050505050908060010180546101b390610dfa565b80601f01602080910402602001604051908101604052809291908181526020018280546101df90610dfa565b801561022c5780601f106102015761010080835404028352916020019161022c565b820191906000526020600020905b81548152906001019060200180831161020f57829003601f168201915b5050505050908060020160009054906101000a900473ffffffffffffffffffffffffffffffffffffffff16908060020160149054906101000a900460ff16905084565b60008460405161027f9190610e67565b908152602001604051809103902060020160149054906101000a900460ff166102dd576040517f08c379a00000000000000000000000000000000000000000000000000000000081526004016102d490610eca565b60405180910390fd5b600060405180608001604052808581526020018481526020018381526020014281525090506000856040516103129190610e67565b908152602001604051809103902060030181908060018154018082558091505060019003906000526020600020906004020160009091909190915060008201518160000190816103629190611096565b5060208201518160010190816103789190611096565b50604082015181600201908161038e9190611096565b506060820151816003015550507f848dfea49b61b8d11cf45bc883be50b7dbb749a8a605f5fa79b6cffad03d4db78585846040516103ce93929190611168565b60405180910390a15050505050565b60606000826040516103ef9190610e67565b9081526020016040518091039020600301805480602002602001604051908101604052809291908181526020016000905b82821015610612578382906000526020600020906004020160405180608001604052908160008201805461045390610dfa565b80601f016020809104026020016040519081016040528092919081815260200182805461047f90610dfa565b80156104cc5780601f106104a1576101008083540402835291602001916104cc565b820191906000526020600020905b8154815290600101906020018083116104af57829003601f168201915b505050505081526020016001820180546104e590610dfa565b80601f016020809104026020016040519081016040528092919081815260200182805461051190610dfa565b801561055e5780601f106105335761010080835404028352916020019161055e565b820191906000526020600020905b81548152906001019060200180831161054157829003601f168201915b5050505050815260200160028201805461057790610dfa565b80601f01602080910402602001604051908101604052809291908181526020018280546105a390610dfa565b80156105f05780601f106105c5576101008083540402835291602001916105f0565b820191906000526020600020905b8154815290600101906020018083116105d357829003601f168201915b5050505050815260200160038201548152505081526020019060010190610420565b505050509050919050565b60008360405161062d9190610e67565b908152602001604051809103902060020160149054906101000a900460ff161561068c576040517f08c379a000000000000000000000000000000000000000000000000000000000815260040161068390611200565b60405180910390fd5b8160008460405161069d9190610e67565b908152602001604051809103902060000190816106ba9190611096565b50806000846040516106cc9190610e67565b908152602001604051809103902060010190816106e99190611096565b50336000846040516106fb9190610e67565b908152602001604051809103902060020160006101000a81548173ffffffffffffffffffffffffffffffffffffffff021916908373ffffffffffffffffffffffffffffffffffffffff160217905550600160008460405161075c9190610e67565b908152602001604051809103902060020160146101000a81548160ff0219169083151502179055507f4478fdb5cca1a28d79052038c209db14519451af9c6bc6e753a2614e5ea43f1a8383336040516107b793929190611220565b60405180910390a1505050565b6000604051905090565b600080fd5b600080fd5b600080fd5b600080fd5b6000601f19601f8301169050919050565b7f4e487b7100000000000000000000000000000000000000000000000000000000600052604160045260246000fd5b61082b826107e2565b810181811067ffffffffffffffff8211171561084a576108496107f3565b5b80604052505050565b600061085d6107c4565b90506108698282610822565b919050565b600067ffffffffffffffff821115610889576108886107f3565b5b610892826107e2565b9050602081019050919050565b82818337600083830152505050565b60006108c16108bc8461086e565b610853565b9050828152602081018484840111156108dd576108dc6107dd565b5b6108e884828561089f565b509392505050565b600082601f830112610905576109046107d8565b5b81356109158482602086016108ae565b91505092915050565b600060208284031215610934576109336107ce565b5b600082013567ffffffffffffffff811115610952576109516107d3565b5b61095e848285016108f0565b91505092915050565b600081519050919050565b600082825260208201905092915050565b60005b838110156109a1578082015181840152602081019050610986565b60008484015250505050565b60006109b882610967565b6109c28185610972565b93506109d2818560208601610983565b6109db816107e2565b840191505092915050565b600073ffffffffffffffffffffffffffffffffffffffff82169050919050565b6000610a11826109e6565b9050919050565b610a2181610a06565b82525050565b60008115159050919050565b610a3c81610a27565b82525050565b60006080820190508181036000830152610a5c81876109ad565b90508181036020830152610a7081866109ad565b9050610a7f6040830185610a18565b610a8c6060830184610a33565b95945050505050565b60008060008060808587031215610aaf57610aae6107ce565b5b600085013567ffffffffffffffff811115610acd57610acc6107d3565b5b610ad9878288016108f0565b945050602085013567ffffffffffffffff811115610afa57610af96107d3565b5b610b06878288016108f0565b935050604085013567ffffffffffffffff811115610b2757610b266107d3565b5b610b33878288016108f0565b925050606085013567ffffffffffffffff811115610b5457610b536107d3565b5b610b60878288016108f0565b91505092959194509250565b600081519050919050565b600082825260208201905092915050565b6000819050602082019050919050565b600082825260208201905092915050565b6000610bb482610967565b610bbe8185610b98565b9350610bce818560208601610983565b610bd7816107e2565b840191505092915050565b6000819050919050565b610bf581610be2565b82525050565b60006080830160008301518482036000860152610c188282610ba9565b91505060208301518482036020860152610c328282610ba9565b91505060408301518482036040860152610c4c8282610ba9565b9150506060830151610c616060860182610bec565b508091505092915050565b6000610c788383610bfb565b905092915050565b6000602082019050919050565b6000610c9882610b6c565b610ca28185610b77565b935083602082028501610cb485610b88565b8060005b85811015610cf05784840389528151610cd18582610c6c565b9450610cdc83610c80565b925060208a01995050600181019050610cb8565b50829750879550505050505092915050565b60006020820190508181036000830152610d1c8184610c8d565b905092915050565b600080600060608486031215610d3d57610d3c6107ce565b5b600084013567ffffffffffffffff811115610d5b57610d5a6107d3565b5b610d67868287016108f0565b935050602084013567ffffffffffffffff811115610d8857610d876107d3565b5b610d94868287016108f0565b925050604084013567ffffffffffffffff811115610db557610db46107d3565b5b610dc1868287016108f0565b9150509250925092565b7f4e487b7100000000000000000000000000000000000000000000000000000000600052602260045260246000fd5b60006002820490506001821680610e1257607f821691505b602082108103610e2557610e24610dcb565b5b50919050565b600081905092915050565b6000610e4182610967565b610e4b8185610e2b565b9350610e5b818560208601610983565b80840191505092915050565b6000610e738284610e36565b915081905092915050565b7f50726f6475637420646f6573206e6f7420657869737400000000000000000000600082015250565b6000610eb4601683610972565b9150610ebf82610e7e565b602082019050919050565b60006020820190508181036000830152610ee381610ea7565b9050919050565b60008190508160005260206000209050919050565b60006020601f8301049050919050565b600082821b905092915050565b600060088302610f4c7fffffffffffffffffffffffffffffffffffffffffffffffffffffffffffffffff82610f0f565b610f568683610f0f565b95508019841693508086168417925050509392505050565b6000819050919050565b6000610f93610f8e610f8984610be2565b610f6e565b610be2565b9050919050565b6000819050919050565b610fad83610f78565b610fc1610fb982610f9a565b848454610f1c565b825550505050565b600090565b610fd6610fc9565b610fe1818484610fa4565b505050565b5b8181101561100557610ffa600082610fce565b600181019050610fe7565b5050565b601f82111561104a5761101b81610eea565b61102484610eff565b81016020851015611033578190505b61104761103f85610eff565b830182610fe6565b50505b505050565b600082821c905092915050565b600061106d6000198460080261104f565b1980831691505092915050565b6000611086838361105c565b9150826002028217905092915050565b61109f82610967565b67ffffffffffffffff8111156110b8576110b76107f3565b5b6110c28254610dfa565b6110cd828285611009565b600060209050601f83116001811461110057600084156110ee578287015190505b6110f8858261107a565b865550611160565b601f19841661110e86610eea565b60005b8281101561113657848901518255600182019150602085019450602081019050611111565b86831015611153578489015161114f601f89168261105c565b8355505b6001600288020188555050505b505050505050565b6000606082019050818103600083015261118281866109ad565b9050818103602083015261119681856109ad565b905081810360408301526111aa81846109ad565b9050949350505050565b7f50726f6475637420616c72656164792065786973747300000000000000000000600082015250565b60006111ea601683610972565b91506111f5826111b4565b602082019050919050565b60006020820190508181036000830152611219816111dd565b9050919050565b6000606082019050818103600083015261123a81866109ad565b9050818103602083015261124e81856109ad565b905061125d6040830184610a18565b94935050505056fea26469706673582212209819e93fc5065feaff5b40f4b575e92a3997a8874f34ce40320db445c75ae93364736f6c634300081c0033",
  "linkReferences": {},
  "deployedLinkReferences": {}
}